:1000000000000220D543000001440000014400002C
:1000100001440000014400000144000001440000CC
:1000200001440000014400000144000001440000BC
:1000300001440000014400000144000001440000AC
:100040000144000099030000014400000144000045
:10005000014400000144000001440000014400008C
:10006000014400000144000001440000014400007C
:10007000014400000144000001440000014400006C
:1000800001440000892F00000144000001440000E9
:10009000014400000144000001440000014400004C
:1000A000014400000144000001440000014400003C
:1000B0000144000001440000253800000144000014
:1000C000014400000144000001440000014400001C
:1000D00001440000014400000144000010B5054C3B
:1000E000237833B9044B13B10448AFF300800123E4
:1000F000237010BDC000002000000000C8550000A3
:1001000008B5064B1BB106480649AFF30080064808
:10011000036813B1054B03B1984708BD0000000008
:10012000C8550000C4000020BC00002000000000F2
:10013000154B002B08BF134B9D46A3F5803A0021B9
:100140008B460F461348144A121A04F073FD0F4BE6
:10015000002B00D098470E4B002B00D09847002072
:10016000002104000D000D48002802D00C48AFF318
:10017000008004F039FD2000290000F0D7FA04F0D7
:100180001FFD00BF0000080000000220000000006A
:1001900000000000C0000020B001002000000000AE
:1001A0000000000080B483B000AF0346FB71084B31
:1001B00097F907205209F97901F01F01012000FA8F
:1001C00001F143F822100C37BD465DF8047B7047FF
:1001D00000E100E080B483B000AF0346FB71094B3F
:1001E00097F907205209F97901F01F01012000FA5F
:1001F00001F1203243F822100C37BD465DF8047B34
:10020000704700BF00E100E080B483B000AF7860C9
:10021000044B7A68C3F81C210C37BD465DF8047B9B
:10022000704700BF0060004080B584B002AF396005
:100230000146F971BA717B71FA79BB7979790091CC
:10024000397C0191104639683A6801F01BFC083787
:10025000BD4680BD80B582B000AF0C4B1B687B6093
:100260003B46184602F04EFC7B681B0E0F2B0AD94A
:100270003B78032B07D1064B054A126822F0500247
:1002800042F010021A600837BD4680BDFC81E00FC5
:10029000C0800C4080B584B000AF78607B68B3F15B
:1002A000FF3F03D1144B1B68BB600BE07B68DB0096
:1002B000124A82FB0312D210DB17D31ABB600E4B1B
:1002C000BA681A600023FB600FE0FA68BB689A42C4
:1002D00004DCF868012103F0E7FD03E0F868002181
:1002E00003F0E2FDFB680133FB60FB68072BECDDEC
:1002F0001037BD4680BD00BFE0000020ABAAAA2A8F
:1003000080B584B000AF78607B68B3F1FF3F03D164
:100310001E4B1B78FB7315E07B689B001C4A82FB1D
:1003200003121211DB17D31AFB73184B1B781946F3
:10033000184A12F811306FF3C30302F81130134B4F
:10034000FA7B1A700023BB7313E0BA7B114B0021B8
:1003500023F81210BA7BFB7B9A4207D1B97B0D4A76
:1003600012F8113043F0080302F81130BB7B01335F
:10037000BB73BB7B072BE8D900F0BAF800F006F995
:10038000044803F0D5FF1037BD4680BDE8000020CB
:100390009D8297539001002080B584B002AF4FF446
:1003A0008060FFF731FF264B1B78DBB25BB2002B7E
:1003B00002D0022B20D03FE00023009301200A212D
:1003C00000220123FFF730FF0120FFF703FF1C4B42
:1003D00001221A701B4B1A681B4B1B6801334FF428
:1003E0007A7191FBF3F300210091104601211A4626
:1003F000164B03F041F81FE0154B1B68184603F03D
:10040000DDF900237B6007E0124A7B681344FF227A
:100410001A707B6801337B607B68032BF4DD0E4B25
:1004200000221A800D4B00221A80054B00221A7000
:100430000B4803F011FF00BF0837BD4680BD00BF69
:10044000DC000020A4010020E00000206504000082
:10045000A001002000000020E4000020E6000020B1
:10046000144E000080B582B000AF7860396000F0B3
:1004700003F80837BD4680BD80B582B000AF0223C7
:100480007B600AE07B68013316497A680A44117878
:10049000144AD1547B68013B7B607B68002BF1DA06
:1004A000114B1B88182B14D804F0CCFB02460F4BC1
:1004B0001340002B03DA013B63F003030133DAB28C
:1004C000084B1A70084B1B8801339AB2064B1A80EE
:1004D00002E0044BFF221A7000F00AF80837BD460C
:1004E00080BD00BF00000020E40000200300008069
:1004F00080B582B002AF1D4BDB785AB21C4B1B7823
:100500009A4209D1194BFE22DA701A4B1B8801332B
:100510009AB2184B1A8027E0144BDB785BB2B3F128
:10052000FF3F21D1144B1B88192B1DD1134B0222E5
:100530001A70134B1B68184603F040F9114B1B68E7
:1005400000220092184601214FF4FA720E4B02F07D
:1005500093FF0123009301200A2100220123FFF7CA
:1005600063FE0120FFF71EFEBD4680BD0000002097
:10057000E8000020E6000020E4000020DC0000206D
:10058000A4010020A0010020A906000080B483B0CF
:1005900000AF00237B6046E000233B603DE0264A3D
:1005A0007B6813441B785AB23B689A4232D17B680D
:1005B000032B2FD801A252F823F000BFCD05000075
:1005C000DF050000F1050000030600001B4A396842
:1005D00012F8113043F0010302F811301AE0174A03
:1005E0003B685B0013445A7842F001025A7011E0F4
:1005F000124A3B685B0013445A7842F010025A706A
:1006000008E00E4A396812F8113043F0080302F886
:10061000113000BF3B6801333B603B68032BBEDDFC
:100620007B6801337B607B68032BB5DD0C37BD46EF
:100630005DF8047B704700BF00000020900100209F
:1006400080B483B000AF00237B6022E0154A796854
:1006500012F811306FF3000302F81130114A7B6871
:100660005B0013445A786FF300025A700D4A7B689E
:100670005B0013445A786FF304125A70094A796880
:1006800012F811306FF3C30302F811307B680133A5
:100690007B607B68032BD9DD0C37BD465DF8047B9E
:1006A000704700BF90010020B0B58CB000AF7860FB
:1006B00039601B4B07F108041D460FCD0FC42B6892
:1006C000236007F11C0300221A60043300221A6021
:1006D000043300221A600433124B1B68591C124B5E
:1006E00083FB01239A10CB17D21A13469B001344A5
:1006F0005B00CA1A0B4B1A600A4B1B6807F1080211
:10070000134407F1280210461946072204F0DCFAC8
:1007100007F12803184603F09FFD3037BD46B0BDF2
:10072000184E0000EC0000206766666680B584B055
:1007300002AFFFF78FFD00F06BF8002002F042FDE2
:10074000002002F057FB002003F0D8FB01230093A8
:1007500001200A2100220123FFF766FD0120FFF797
:1007600021FD02F039FE254802F0F2FD244802F096
:10077000EFFD00E000BF234B1B78DBB25BB201331F
:10078000032BF7D801A252F823F000BFF7070000AF
:100790009D070000AB070000E707000002F062FCC5
:1007A00078607868FFF776FD26E0FFF749FFFFF7EE
:1007B000EDFE02F057FC38603868FFF7A1FD4FF0FE
:1007C000FF30FFF767FD104B1B88642202FB03F22A
:1007D0000E4B1B881344184603F0ECFB0820012144
:1007E00003F0A2FC08E002F03DFC38604FF0FF305F
:1007F000FFF750FD00E000BFBCE700BFA4010020F0
:10080000A0010020DC000020E4000020E600002021
:1008100080B500AF00F008F800F01CF800F048F8D0
:1008200000F05CF880BD00BF80B500AF074B074A01
:10083000126822F003021A60044B044A126822F084
:100840000C021A60024803F09BFE80BD00800C4041
:10085000006CDC0280B500AF01200121012200F014
:10086000E9FF0E48032100F06BFE1120042100F087
:1008700067FE0B48012100F05DFC0A48012100F0F1
:1008800059FC0648032100F05BFE0748012100F0F7
:1008900051FC0648012100F04DFC80BD020018000B
:1008A00040810400004302006016100000D20400E2
:1008B00080B582B000AF084A3B1D1188927819803C
:1008C0009A7000237B710123BB713B1D184602F017
:1008D000E7F80837BD4680BD384E000080B400AF51
:1008E000084B084A126B42F480621A63054B054AB2
:1008F000D26A22F4706242F48072DA62BD465DF818
:10090000047B70470060004080B487B000AFF8609F
:10091000B9607A60FB6803F10473DA00BB681344C2
:100920009B007B617B697A681A601C37BD465DF865
:10093000047B704780B485B000AFF860B9607A601E
:10094000FB681A68BB68DB431A407B681A43FB6884
:100950001A601437BD465DF8047B704780B582B0DD
:1009600000AF786039607A681D4B9A4203D07A688C
:100970001C4B9A4200D100BF3B681B78DA073B68EA
:100980005B789B0713431A463B685B681B061A4358
:100990003B681B7A1B021A433B685B7A1B011A43B4
:1009A0007B681A603B689B7A1B071A463B68DB7AB8
:1009B0001B041A433B68DB681B02134343F080733C
:1009C00043F0B0037A6853607A683B681B7C10463A
:1009D00000211A46FFF798FF0837BD4680BD00BFCB
:1009E000001000400014004080B584B000AFF860F3
:1009F000B960FA71BB71FA680C4B9A4203D0FA687D
:100A00000B4B9A4200D100BFFA68BB79DB0010465D
:100A100008211A46FFF78EFFBB681A02FB791A43BA
:100A2000FB68DA611037BD4680BD00BF0010004092
:100A30000014004080B487B000AFF860B9607A60FD
:100A4000FB6803F10473DA00BB6813449B007B610D
:100A50007B697A681A601C37BD465DF8047B704775
:100A600080B485B000AF786039607B6803F10473AF
:100A7000DA003B6813449B00FB60FB681B68184668
:100A80001437BD465DF8047B704700BF80B485B065
:100A900000AF78607B68002B04D07B68B3F5004F13
:100AA00000D800BF7B68B3FA83F3C3F11F03FB6078
:100AB000FB6818461437BD465DF8047B704700BFDD
:100AC00080B400AF044BDB6C1B0EDBB21846BD4696
:100AD0005DF8047B704700BFB081E00F80B400AFC9
:100AE000054BDB6C03F47F031B0CDBB21846BD46E1
:100AF0005DF8047B704700BFB081E00F80B582B025
:100B000000AFFFF7EBFF03464A2B04D0792B02D04E
:100B1000482B22D023E0144B1B699BB203F03F0308
:100B20009BB21B02FB80104B9B699BB203F0F0034E
:100B30009AB2FB881343FB800B4BDB6903F0F00395
:100B40001B099AB2FB881343FB80FB88B3F5017F36
:100B500001D3064B04E0064B02E0054B00E0002306
:100B600018460837BD4680BDD0FF0FE000366E0145
:100B70000048E80180B584B000AF786039607A68D9
:100B80003B689A4294BF00230123DBB2FB60064816
:100B90001E21FA68FFF74EFF04480821FA68FFF7A4
:100BA00049FF1037BD4680BD00800C4004800C40DA
:100BB00080B582B000AF07481E21FFF751FF786073
:100BC00005480821FFF74CFF38607B681846083756
:100BD000BD4680BD00800C4004800C4080B582B0D2
:100BE00000AF214B5B6903F4E063B3F5007F1CD0D9
:100BF000B3F5007F05D8002B25D0B3F5807F1FD03B
:100C00002AE0B3F5C06F24D0B3F5E06F1ED0B3F582
:100C1000407F21D1FFF754FF0346122B02D9134B1B
:100C20007B601CE0124B7B6019E0FFF749FF034635
:100C3000122B02D90F4B7B6011E00F4B7B600EE053
:100C40000E4B7B600BE00E4B7B6008E00D4B7B6036
:100C500005E00D4B7B6002E000237B6000BF7B68FA
:100C600018460837BD4680BD00800C40804F1200FA
:100C700040420F0040B56400C0CF6A00C0D8A70052
:100C8000809FD500406F4001003FAB0180B582B02E
:100C900000AF0D4800F0A6FB0346FB70FB78072B66
:100CA00005D0082B07D103F0DFFB786006E0FFF7E3
:100CB00095FF786002E000237B6000BF7B681846E8
:100CC0000837BD4680BD00BF06000C0080B485B06B
:100CD00000AF7860284BDB6B002B0CBF0023012397
:100CE000BB72254B41F67132DA63234B5B6803F02C
:100CF0000703FB60FB68012B01D9042B02D1002301
:100D0000FB7202E00123FB7200BF7A681B4B9A4220
:100D100007D9FB7A002B01D0052300E00423FB60F8
:100D200016E07A68154B9A420BD87A68144B9A42AF
:100D300007D9FB7A002B01D0032300E00123FB60DD
:100D400006E0FB7A002B01D0022300E00023FB60C9
:100D5000094B094A526822F00701FA680A435A60AF
:100D6000BB7A002B02D0044B0022DA631437BD4655
:100D70005DF8047B704700BF00000C400048E801AC
:100D80000024F40080B500AF03F064FB034618466E
:100D9000FFF79CFF80BD00BF90B585B000AF7860C5
:100DA0000023BB607B68344A934203D0334A9342AA
:100DB00000D000E000BF786800F014FB0346FB6041
:100DC0007B682D4A934203D02C4A934206D00CE014
:100DD0002B4B9B6A03F00303FB6006E0284B9B6AE6
:100DE00003F00C039B08FB6000BFFB68032B3AD8A1
:100DF00001A252F823F000BF2F0E0000090E0000E0
:100E0000110E0000190E000003F0D6FBB8602DE0B3
:100E100003F0E6FBB86029E003F002FB0446FFF7AD
:100E2000C7FE0346013324FA03F3BB601EE0002330
:100E3000BB607A68104B9A4203D07A680F4B9A4293
:100E400010D10F4B9A6A79680B4B994201D110234C
:100E500000E0142322FA03F3002B03D003F0B6FBC7
:100E6000B86003E002E00023BB6000BFBB68184627
:100E70001437BD4690BD00BF0200180003001A00E1
:100E800000800C4080B483B000AF7860094B5B6D8C
:100E900003F00103002B00D006E000BF054B1A6DE4
:100EA0007B681340002BF9D10C37BD465DF8047BFD
:100EB000704700BF00800C4080B582B000AF104882
:100EC00000F090FA0346FB70FB78032B07D0082B49
:100ED00009D0022B0BD103F083FB78600AE003F00A
:100EE0006BFB786006E003F0BFFA786002E0002355
:100EF0007B6000BF7B6818460837BD4680BD00BFD9
:100F000007232000B0B584B000AF786039607B68FB
:100F10001B0903F00F03FB60FB68013B062B00F28B
:100F2000F68001A252F823F0450F00000F110000D7
:100F30000F110000790F0000A30F0000F70F000051
:100F4000BB1000003B68002B03D03B68082B00D887
:100F500000BFFFF717FF704B6F4A126822F4E031B1
:100F60003A68013A92030A431A6003F059FAB860EA
:100F7000B868FFF7ABFECBE03B68002B04D03B68C2
:100F8000B3F5007F00D800BF3868FFF77FFD3860F9
:100F9000614B614A926822F00F013A680A439A60F5
:100FA000B6E03B68002B04D03B68B3F5007F00D867
:100FB00000BFFFF7E7FE03F057FA02463B68B2FBBB
:100FC000F3F4FFF79BFD034620461946FFF7D2FDD9
:100FD0003868FFF75BFD38604F4B4F4A526822F08C
:100FE0000F013A680A435A6003F01AFAB860B86809
:100FF000FFF76CFE8CE07B68484A93421ED0474A5C
:10100000934203D8464A934207D055E0454A93425B
:1010100025D0454A93423FD04EE00420FFF732FFEF
:101020003868FFF733FD38603B4B3B4A926E22F045
:10103000F0013A6812010A439A663DE00420FFF786
:1010400021FF3868FFF722FD3860334B324A926E39
:1010500022F470613A6812020A439A662CE03B68F7
:101060000F2B03D93B68802B00D800BF0420FFF76B
:1010700009FF3868FFF70AFD3860274C264B9B6E46
:1010800023F440551020FFF701FD03463A68D31AB8
:101090001B032B43A3660FE00420FFF7F3FE386821
:1010A000FFF7F4FC38601C4B1B4A926E22F00301E0
:1010B0003A680A439A6600BF2AE07B681B4A93425B
:1010C00003D01B4A934210D020E04020FFF7DAFE05
:1010D0003868FFF7DBFC38600F4B0F4A126F22F0C5
:1010E00003013A680A431A6710E04020FFF7CAFE7E
:1010F0003868FFF7CBFC3860074B074A126F22F0C5
:1011000030013A6812010A431A6700BF00E000BFCD
:101110001037BD46B0BD00BF00800C4060261200F5
:10112000601610006000240060062800700714009C
:101130007017160090B587B000AF78600B46FB7053
:1011400000233B617B681B0A03F00F03013B092B63
:1011500049D801A252F823F09D110000A31100000C
:1011600081110000E7110000E7110000A911000043
:10117000B3110000E7110000E7110000BD110000ED
:101180001B4B7B611B4800F041F80446FFF7B6FC9F
:10119000034620461946FFF7EDFC12E0164B7B6133
:1011A0000FE0164B7B610CE0154B7B6101233B612B
:1011B00007E0144B7B6110233B6102E0124B7B6123
:1011C00000BF7B681B0B03F01F03FB603B69002B18
:1011D00002D03869FFF756FEFB787869F9681A463D
:1011E000FFF728FC00E000BF1C37BD4690BD00BFE4
:1011F00040800C400043020008800C4044800C40BA
:1012000058800C4060800C4078800C4090B585B0D0
:1012100000AF78607B6803F47813B3F5A01F00F08B
:10122000AB80B3F5A01F1AD8B3F5402F00F0BF80F4
:10123000B3F5402F08D8B3F5003F3CD0B3F5802F6D
:101240002DD0002B27D0BEE0B3F5801F3CD0B3F5E6
:10125000901F47D0B3F5602F00F0AD80B3E0B3F539
:10126000001F00F0AC80B3F5001F0AD8B3F5C01F13
:1012700025D0B3F5D01F7AD0B3F5B01F00F0898028
:10128000A1E0B3F5181F4ED0B3F5201F62D0B3F51F
:10129000101F35D097E003F0E7F8F86096E003F010
:1012A000E3F8F8604C4B9B6803F00F03FA6822FAEE
:1012B00003F3FB608AE003F0B3F8F86086E0474888
:1012C000FFF76AFDF86081E04448FFF765FDF860CC
:1012D000414B9B6E03F0F0031B09FA6822FA03F3FB
:1012E000FB6073E03D48FFF757FDF8603A4B9B6E9B
:1012F00003F470631B0AFA6822FA03F3FB6065E0EB
:101300003648FFF749FDF860334B9B6E03F44053BA
:101310001C0B1020FFF7BAFB03462344FA6822FA9D
:1013200003F3FB6052E02D48FFF736FDF8602A4BCF
:101330009B6E03F440531B0BFA6822FA03F3FB6025
:10134000254BDB6F03F007030133FA68B2FBF3F3BD
:10135000FB603BE02148FFF71FFDF8601E4B9B6ED2
:1013600003F00303FA6822FA03F3FB602EE01C4843
:10137000FFF712FDF86029E01948FFF70DFDF8604E
:10138000154B1B6F03F00303FA6822FA03F3FB60AB
:101390001CE01348FFF700FDF8600F4B1B6F03F0D4
:1013A00030031B09FA6822FA03F3FB600EE0FFF733
:1013B0006DFCF8600AE0FFF711FCF86006E0FFF74B
:1013C0007BFDF86002E00023FB6000BFFB6818466D
:1013D0001437BD4690BD00BF00800C4002001800CD
:1013E00003001A0080B485B000AF78600123FB735E
:1013F0007B6803F00F03BB60BB68013B062B00F268
:10140000938001A252F823F0251400005B14000021
:10141000971400002915000029150000D3140000BE
:10142000F5140000454BDB6A03F47053B3F5805F9D
:1014300009D0B3F5005F03D0B3F5006F06D008E024
:101440000223FB7308E00323FB7305E00423FB7313
:1014500002E00523FB7300BF69E0384B9B6A03F091
:101460000303022B06D0032B07D0012B08D1032343
:10147000FB730FE00223FB730CE00623FB7309E010
:101480002E4B9B6A03F48033002B02D00923FB739D
:1014900000E000BF4BE0294B9B6A03F00C03082BD4
:1014A00006D00C2B07D0042B08D10323FB730FE0CD
:1014B0000223FB730CE00623FB7309E01F4B9B6ABE
:1014C00003F48013002B02D00923FB7300E000BF5C
:1014D0002DE01A4B1B6803F08053002B03D0B3F1AF
:1014E000805F03D023E00723FB7302E00823FB7334
:1014F00000BF1CE0114BDB6A03F46033B3F5803F9F
:1015000008D0B3F5003F08D0B3F5004F08D1082349
:10151000FB7308E00223FB7305E00323FB7302E087
:101520000123FB7300BF02E00023FB7300BFFB7BC2
:1015300018461437BD465DF8047B704700800C40A8
:1015400090B589B000AF78600B46FB700323FB6158
:101550000323FB7600233B617B6803F00F03FB60F2
:10156000FB68013B062B00F2348101A252F823F004
:101570008D1500007916000079160000D3170000C1
:10158000D3170000411700006B170000FB78023BE7
:10159000072B00F2228101A252F823F0BD150000B2
:1015A000C7150000D11500001B160000DB17000056
:1015B000DB170000DB170000DB1700000423FB61D2
:1015C0000023FB7639E00323FB610123FB7634E043
:1015D0000223FB610223FB76FFF790FA03465C1CB3
:1015E000FFF78CFA034620461946FFF7C3FA02F0CC
:1015F000BBFF02467C4B9A4206D97C4B7B4A126861
:1016000042F060021A6018E0784B784A126822F0C3
:10161000600242F020021A600FE00123FB61032305
:10162000FB76FFF76BFA03465C1CFFF767FA03468D
:1016300020461946FFF79EFA00BFFB7E184601219F
:10164000012200F0F7F8FFF79DFB684BFA695A6238
:101650006748FFF7DBFD0446FFF750FA03462046D4
:101660001946FFF787FA00F045F902F0D9FEB86095
:10167000B868FFF72BFBADE0FB78013B082B00F2CD
:10168000AE8001A252F823F0AD160000B3160000A0
:10169000C3160000DF170000DF170000D31600009C
:1016A000DF170000DF170000F716000000237B6142
:1016B00026E000200121012200F0BCF802237B611A
:1016C0001EE001200121012200F0B4F801237B611A
:1016D00016E002F0A5FEB860FFF710FA0346B868FE
:1016E0001946FFF747FA434804210122FFF7A2F900
:1016F00003237B6104E000237B6101233B6100BF86
:10170000FB68022B0DD1394A384B9B6A23F4803396
:1017100023F00303796919433B691B040B4393626C
:1017200058E0324A314B9B6A23F4801323F00C03B8
:101730007969890019433B691B050B43936249E0B2
:10174000FB78072B02D0082B07D049E0274B274A0C
:10175000126822F080521A6006E0244B234A126875
:1017600042F080521A6000BF34E0FB78032B14D0A3
:10177000082B22D0022B00D032E0002001210122D0
:1017800000F058F8194B40225A6200BF174BDB6A31
:1017900003F48033002BF9D01AE00120012101224B
:1017A00000F048F8114B60225A6200BF0F4BDB6A11
:1017B00003F40033002BF9D00AE00C4B20225A62CC
:1017C00000BF0A4BDB6A03F40043002BF9D000BFD3
:1017D00000E000BFFFF7ECF902E000BF00E000BF4F
:1017E0002437BD4690BD00BF0048E80100800C4092
:1017F0000043020040800C4080B483B000AF7860AA
:101800000B4B9B6D03F00803002B00D00BE07B68B3
:1018100003F007037B60064B054AD26F22F00701F5
:101820007A680A43DA670C37BD465DF8047B704777
:1018300000800C4080B586B000AF13460246FA71B6
:101840000A46BA717B71FB79042B4AD801A252F87F
:1018500023F000BFA11800009318000077180000C3
:10186000691800008518000001233B610223FB601A
:1018700001237B611DE004233B610823FB600323FC
:101880007B6116E010233B612023FB6005237B6115
:101890000FE040233B618023FB6007237B6108E06E
:1018A0004FF480733B614FF40073FB6009237B614D
:1018B00000BFBB79002B0ED00C4B3A691A627B79C2
:1018C000002B0BD000BF0A487969FFF7C9F803461F
:1018D000002BF8D002E0054BFA681A6200F00AF813
:1018E00000E000BF1837BD4680BD00BF00800C403F
:1018F0002C800C4080B400AF034BDA6A034B1A60B3
:10190000BD465DF8047B704700800C40F00000206D
:1019100080B487B000AFF860B9607A60FB6803F10B
:101920000473DA00BB6813449B007B617B697A68AF
:101930001A601C37BD465DF8047B704780B485B0E3
:1019400000AFF860B9607A60FB681A68BB68DB4377
:101950001A407B681A43FB681A601437BD465DF86D
:10196000047B704780B483B000AF03463960FB71DD
:10197000FB79002B0DD0FB79012B0AD0FB79022BD0
:1019800007D0FB79032B04D0FB79042B01D0FB7922
:10199000052B0948FA793B68012101FA03F319463E
:1019A0001346DB0013449B000344103359600C378B
:1019B000BD465DF8047B70470060004080B483B092
:1019C00000AF03463960FB71FB79002B0DD0FB792A
:1019D000012B0AD0FB79022B07D0FB79032B04D013
:1019E000FB79042B01D0FB79052B0948FA793B6878
:1019F000012101FA03F319461346DB0013449B004F
:101A00000344103319600C37BD465DF8047B704702
:101A10000060004090B482B000AF02460B46FA71FD
:101A2000BB71FB79002B0ED0FB79012B0BD0FB791E
:101A3000022B08D0FB79032B05D0FB79042B02D0B5
:101A4000FB79052B03D1BB79032B00D800BF0C48D1
:101A5000FA790B4CF9790B46DB000B449B002344CD
:101A60001B6823F00301BB7919431346DB001344C1
:101A70009B00034419600837BD4690BC704700BF07
:101A80000060004080B586B000AFB9607A60024661
:101A9000FA73BB73FB7B002B0DD0FB7B012B0AD0B1
:101AA000FB7B022B07D0FB7B032B04D0FB7B042B9F
:101AB00001D0FB7B052BBB68072B0ED8BB689B00B6
:101AC00007229A40F97BBB689B0001FA03F31A488E
:101AD00011461A46FFF732FF10E0BB68083B7B61F6
:101AE0007B699B0007229A40F97B7B699B0001FA86
:101AF00003F3124811461A46FFF720FFBB7B10483C
:101B0000B9681A46FFF704FF97F820300D48B96806
:101B10001A46FFF7FDFE0C4BBA68012101FA02F2EA
:101B2000C3F81C2197F824300848B9681A46FFF713
:101B3000EFFE1837BD4680BD0061004004610040E3
:101B4000086100400C6100400060004010610040EE
:101B500090B585B000AFB9607B600346FB73134658
:101B6000BB73FB7B002B0DD0FB7B012B0AD0FB7BD7
:101B7000022B07D0FB7B032B04D0FB7B042B01D073
:101B8000FB7B052BBB7B002B0DD07B68002B05D08E
:101B9000FB7B1846B968FFF711FF04E0FB7B184692
:101BA000B968FFF7DFFEBB68072B1DD82B48FA7B0F
:101BB0002A4CF97B0B46DB000B449B0023445968FD
:101BC000BB689B000F2404FA03F3DB431940BC7B82
:101BD000BB689B0004FA03F319431346DB0013446C
:101BE0009B000344596024E01C48FA7B1B4CF97BA2
:101BF0000B46DB000B449B00234408331968BB6889
:101C000003F18043083B9B000F2404FA03F3DB43FA
:101C10001940BC7BBB6803F18043083B9B0004FA7E
:101C200003F319431346DB0013449B0003440833BA
:101C30001960BB7B002B0DD17B68002B05D0FB7B93
:101C40001846B968FFF7BAFE04E0FB7B1846B9688E
:101C5000FFF788FE1437BD4690BD00BF006000400E
:101C600080B483B000AF0346FB71FB79002B06D034
:101C7000084B084A126842F001021A6005E0054B61
:101C8000044A126822F001021A600C37BD465DF862
:101C9000047B704700A0084080B487B000AFF860B4
:101CA000B9607A60FB6803F10473DA00BB6813441F
:101CB0009B007B617B697A681A601C37BD465DF8C2
:101CC000047B704780B584B000AF7860184B5B68C8
:101CD000FB600020FFF7C4FFFB6823F4830323F0BD
:101CE0001F03FB607B685B68FA681343FB607B68DB
:101CF0001B7AFA681343FB607B685B7AFA681343CC
:101D0000FB607B68DB68FA681343FB607B681B8AB7
:101D1000FA681343FB60064BFA685A607B681B78CD
:101D2000002B02D00120FFF79BFF1037BD4680BD7E
:101D300000A0084080B485B000AF78600D4B5B68B0
:101D4000FB60FB6823F48033FB607B68002B08D0CA
:101D5000B3F5803F00D005E0FB6843F48033FB60BF
:101D600000E000BF034BFA685A601437BD465DF8C7
:101D7000047B704700A0084080B483B000AF0246E7
:101D80000B46FA807B717B79002B06D0094B094A00
:101D90009168FA880A439A6006E0064B054A916802
:101DA000FA88D2430A409A600C37BD465DF8047B3E
:101DB000704700BF00A0084080B584B000AFF86055
:101DC000B9601346FB71FB68072B00F2C38001A2C8
:101DD00052F823F0F51D0000211E00004D1E0000EA
:101DE000791E0000A51E0000D11E0000FD1E00008F
:101DF000291F0000BB681F2B07DCBA68FB79574816
:101E000011461A46FFF748FFA5E0BB68203BBB60C0
:101E1000BA68FB79524811461A46FFF73DFF9AE02F
:101E2000BB681F2B07DCBA68FB794E4811461A467F
:101E3000FFF732FF8FE0BB68203BBB60BA68FB79DD
:101E4000494811461A46FFF727FF84E0BB681F2B5D
:101E500007DCBA68FB79454811461A46FFF71CFFB4
:101E600079E0BB68203BBB60BA68FB79404811460B
:101E70001A46FFF711FF6EE0BB681F2B07DCBA683C
:101E8000FB793C4811461A46FFF706FF63E0BB6842
:101E9000203BBB60BA68FB79374811461A46FFF70A
:101EA000FBFE58E0BB681F2B07DCBA68FB793348A0
:101EB00011461A46FFF7F0FE4DE0BB68203BBB60C1
:101EC000BA68FB792E4811461A46FFF7E5FE42E054
:101ED000BB681F2B07DCBA68FB792A4811461A46F3
:101EE000FFF7DAFE37E0BB68203BBB60BA68FB79DE
:101EF000254811461A46FFF7CFFE2CE0BB681F2B82
:101F000007DCBA68FB79214811461A46FFF7C4FE80
:101F100021E0BB68203BBB60BA68FB791C481146D6
:101F20001A46FFF7B9FE16E0BB681F2B07DCBA683C
:101F3000FB79184811461A46FFF7AEFE0BE0BB6866
:101F4000203BBB60BA68FB79134811461A46FFF77D
:101F5000A3FE00E000BF1037BD4680BD40A0084092
:101F600050A0084044A0084054A0084048A00840A1
:101F700058A008404CA008405CA00840CCA00840F5
:101F8000B4A00840D0A00840B8A00840D4A00840A1
:101F9000BCA00840D8A00840C0A0084080B487B0CA
:101FA00000AFF860B9607A60FB68072B00F2AC8084
:101FB00001A252F823F000BFD91F0000FD1F00004E
:101FC0002120000045200000692000009120000031
:101FD000B9200000E12000004E4B1B6C7B61BB6808
:101FE000DB437A6913407B61BA687B6813407A6986
:101FF00013437B61474B7A691A6486E0454B5B6CFF
:102000007B61BB68DB437A6913407B61BA687B689C
:1020100013407A6913437B613E4B7A695A6474E0DA
:102020003C4B9B6C7B61BB68DB437A6913407B61F3
:10203000BA687B6813407A6913437B61354B7A69D0
:102040009A6462E0334BDB6C7B61BB68DB437A698B
:1020500013407B61BA687B6813407A6913437B61E4
:102060002C4B7A69DA6450E02A4BD3F8CC307B6190
:10207000BB68DB437A6913407B61BA687B681340B5
:102080007A6913437B61234B7A69C3F8CC203CE027
:10209000204BD3F8D0307B61BB68DB437A691340B7
:1020A0007B61BA687B6813407A6913437B61194B83
:1020B0007A69C3F8D02028E0164BD3F8D4307B617E
:1020C000BB68DB437A6913407B61BA687B68134065
:1020D0007A6913437B610F4B7A69C3F8D42014E00B
:1020E0000C4BD3F8D8307B61BB68DB437A69134073
:1020F0007B61BA687B6813407A6913437B61054B47
:102100007A69C3F8D82000E000BF1C37BD465DF8EF
:10211000047B704700A0084080B487B000AFF8602F
:10212000B9607A60FB68072B00F2AC8001A252F81C
:1021300023F000BF55210000792100009D210000FF
:10214000C1210000E52100000D2200003522000021
:102150005D2200004E4B1B6D7B61BB68DB437A69DF
:1021600013407B61BA687B6813407A6913437B61D3
:10217000474B7A691A6586E0454B5B6D7B61BB68AE
:10218000DB437A6913407B61BA687B6813407A69E4
:1021900013437B613E4B7A695A6574E03C4B9B6DFF
:1021A0007B61BB68DB437A6913407B61BA687B68FB
:1021B00013407A6913437B61354B7A699A6562E013
:1021C000334BDB6D7B61BB68DB437A6913407B611A
:1021D000BA687B6813407A6913437B612C4B7A6938
:1021E000DA6550E02A4BD3F8B4307B61BB68DB433F
:1021F0007A6913407B61BA687B6813407A6913433C
:102200007B61234B7A69C3F8B4203CE0204BD3F8C0
:10221000B8307B61BB68DB437A6913407B61BA6885
:102220007B6813407A6913437B61194B7A69C3F861
:10223000B82028E0164BD3F8BC307B61BB68DB4389
:102240007A6913407B61BA687B6813407A691343EB
:102250007B610F4B7A69C3F8BC2014E00C4BD3F8B8
:10226000C0307B61BB68DB437A6913407B61BA682D
:102270007B6813407A6913437B61054B7A69C3F825
:10228000C02000E000BF1C37BD465DF8047B7047EE
:1022900000A0084080B483B000AF7860064B064AC7
:1022A000526822F4E0117A680A435A600C37BD463E
:1022B0005DF8047B704700BF00A0084080B487B081
:1022C00000AFF860B9607A60FB6803F10473DA006C
:1022D000BB6813449B007B617B697A681A601C377A
:1022E000BD465DF8047B704780B582B000AF786072
:1022F0000B46FB70FB78002B01D000F0F1FA7B68F5
:102300001B7D184600F020F9504B7A6852789100F6
:102310007A68927811437A68926811437A68D26831
:1023200011437A68D278520211437A681279920284
:1023300011437A685279520311437A6892795204B0
:1023400011437A68D279120411437A68527C92055B
:102350000A431A607B681B781846002100F0D6F803
:102360003A4B7A68127E11467A68527E9200114387
:102370007A68927E920111437A68D27E52001143AC
:102380007A68127F120111437A68527F1202114358
:102390007A68927F920211437A68126A11437A68CE
:1023A00092F82420120511437A6892F825209205AC
:1023B00011437A68926A0A439A60244B7A68928D34
:1023C00011467A6892F83B20920211437A6892F89B
:1023D0003C20920311437A6892F83D209204114305
:1023E0007A6892F83E20920511437A6892F8342078
:1023F000520011437A6892F83520920011437A68AE
:1024000092F83620D20011437A6892F837201201F0
:1024100011437A6892F83820520111437A6892F891
:102420003920920111437A6892F83A20D2010A4386
:10243000DA607B681B6B184600F0F4F9034B7A688E
:10244000127C1A610837BD4680BD00BF00C008403D
:1024500080B588B000AF786039600023FB6101234C
:10246000BB613F237B617B68002B03D12548FEF7CE
:10247000CDFE78603B68002B04D03A687B689A42B6
:1024800000D808E007E0FB690133FB61FB6901222A
:1024900002FA03F3BB613B68BA6902FB03F37A6893
:1024A000B2FBF3F27B6901339A4202D9FB69062B36
:1024B000E9D93B68BA6902FB03F37A68B2FBF3F32C
:1024C000013B7B61104B5B6823F47F2323F4E063C3
:1024D0003B61FB691A027B691B0313433A6913438F
:1024E0003B61094B3A695A607B690133BA6902FB67
:1024F00003F37A68B2FBF3F3FB60FB6818462037FE
:10250000BD4680BD6006280000C0084080B584B08C
:1025100000AF02460B46FA71BB710A4B1B6823F0F1
:102520000303FB60FB79FA681343FB60054BFA6811
:102530001A60BB79002B01D000F084F91037BD463A
:1025400080BD00BF00C0084080B485B000AF034626
:10255000FB71094B5B6823F44003FB60FB799B052F
:10256000FA681343FB60044BFA685A601437BD469F
:102570005DF8047B704700BF00C0084080B485B0A0
:1025800000AF02460B46FA71BB71FB79002B0FD0EE
:10259000012B00D01AE0104B5B6823F00303FB60B3
:1025A000BB79FA681343FB600B4BFA685A600DE085
:1025B000094B5B6823F07003FB60BB791B01FA6871
:1025C0001343FB60044BFA685A6000BF1437BD46E2
:1025D0005DF8047B704700BF00C0084080B584B040
:1025E00000AF78600023FB600AE0FB685B017A685B
:1025F00013441846F96800F009F8FB680133FB60E2
:10260000FB680F2BF1D91037BD4680BD80B584B073
:1026100000AF786039607B685B68B3F5C03F0BD171
:102620003B68022B08D03B68032B05D03B68042B8A
:1026300002D03B68052B00D100BF7B681B7A032BBF
:102640000BD13B680C2B08D03B680D2B05D03B68A9
:102650000E2B02D03B680F2B00D100BF7B681B7A8A
:10266000032B0BD13B68002B08D03B68012B05D016
:102670003B68022B02D03B68032B00D100BF394BD3
:102680009A6B3B685B00032101FA03F3DB431340C1
:10269000FB607B681B7A1A463B685B0002FA03F317
:1026A000FA681343FB602F4BFA689A633B68D8B211
:1026B0007B68D97B7B681A7C7B685B7C00F05AF86E
:1026C00028497B685B7B5A047B689B7B9B041A438D
:1026D0007B689B8A1A437B68DB8A1A437B685B684A
:1026E0001A437B685B7ADB041A433B682C331B017B
:1026F0000B445A601B497B68DA697B689B7A5B04F0
:102700001A437B681B7B9B041A437B68DB7ADB04E0
:102710001A433B681B010B4403F532731A603B6894
:10272000D9B27B685A8A7B681B8B084611461A46C9
:1027300000F03CF87B689B780B4839681A46FFF735
:10274000BDFD7B685B78094839681A46FFF7B6FD1E
:102750007B681B78064839681A46FFF7AFFD1037CB
:10276000BD4680BD00C008404CC0084054C0084071
:1027700018C0084080B483B000AFF871B9717A71A5
:102780003B710949FB79B8797A79920110433A791A
:10279000520302432C331B010B441A600C37BD4615
:1027A0005DF8047B704700BF00C0084080B485B06E
:1027B00000AF13460246FA710A46BA807B80184A77
:1027C000FB792C331B0113445B6823F47F6323F0F4
:1027D0000F03FB60BB88FA681343FB60104AFB7968
:1027E0002C331B011344FA685A600D4AFB791B0114
:1027F000134403F532731B681B0C1B04FB607B88BE
:10280000FA681343FB60064AFB791B01134403F586
:102810003273FA681A601437BD465DF8047B70475E
:1028200000C0084080B483B000AF7860044B7A6881
:1028300002F00F021A630C37BD465DF8047B704747
:1028400000C0084080B400AF00BF0A4B1B6D03F00E
:102850002003002BF9D1074B01225A6100BF054B21
:102860001B6D03F02003002BF9D1BD465DF8047BFE
:10287000704700BF00C0084080B400AF00BF0A4BE3
:102880001B6D03F02003002BF9D1074B02225A6184
:1028900000BF054B1B6D03F02003002BF9D1BD4693
:1028A0005DF8047B704700BF00C0084080B400AFF3
:1028B00000BF0A4B1B6D03F02003002BF9D1074B1F
:1028C00008225A6100BF054B1B6D03F02003002B4B
:1028D000F9D1BD465DF8047B704700BF00C00840D9
:1028E00080B483B000AF374B0022DA64354B364AF0
:1028F0005A64344B334AD26842F00102DA6000BFB6
:10290000304B1B6D03F02003002BF9D12D4B0A2215
:102910005A612C4B00221A602A4B00229A60294BE4
:102920000022DA60274B00221A61264B00229A61AE
:10293000244B00229A63234B0022DA63214B0022AE
:102940005A6500237B6018E01E4A7B682C331B010C
:10295000134400221A601B4A7B682C331B0113446A
:1029600000225A60174A7B681B01134403F5327337
:1029700000221A607B6801337B607B680F2BE3D9F0
:1029800000237B600FE00F4B7A684032002143F850
:1029900032100C4A7B684033DB00134400225A603B
:1029A0007B6801337B607B680F2BECD900BF054B44
:1029B0001B6D03F02003002BF9D10C37BD465DF8E9
:1029C000047B704700C00840FFFF7F0080B487B0E1
:1029D00000AFF860B9607A60FB6803F10473DA0055
:1029E000BB6813449B007B617B697A681A601C3763
:1029F000BD465DF8047B704780B485B000AF786059
:102A00007B68002B02D0012B04D007E0084B9B68A9
:102A1000FB6006E0064BDB68FB6002E00023FB6026
:102A200000BFFB6818461437BD465DF8047B70474D
:102A30000000084080B485B000AF786039607B68E2
:102A4000012B05D83B6803F07F43002B00D100BF6A
:102A50007B68002B02D0012B03D008E0064BFB6003
:102A600002E0064BFB6000BFFB683A681A6014374F
:102A7000BD465DF8047B7047080008400C00084024
:102A800080B582B000AF0346FB71FB79034800219B
:102A90001A46FFF79BFF0837BD4680BD000008407F
:102AA00080B485B000AF78607B681B78002B02D0C3
:102AB0000123FB6001E00023FB607B685B78002B57
:102AC00003D0FB6843F00203FB607B689B78002B1C
:102AD00003D0FB6843F00403FB60044BFA681A6000
:102AE0001437BD465DF8047B704700BF0000084006
:102AF00080B500AF0020FFF7C3FF0120FFF7C0FF44
:102B000080BD00BF80B485B000AF7860194B5B69B1
:102B1000DBB203F00F03DBB29B00FB73154B1B69A9
:102B200003F0C0039B09DAB2FB7B1343FB737B68A2
:102B3000FA7B9A700F4B1B69DBB203F03F03DAB2EA
:102B40007B685A700B4B9B69DBB223F00F03FB735E
:102B5000084BDB6903F0F0031B09DAB2FB7B13437C
:102B6000FB737B68FA7B1A701437BD465DF8047BF3
:102B7000704700BFD0FF0FE080B483B000AF0346C2
:102B8000FB71084B97F907205209F97901F01F01F1
:102B9000012000FA01F143F822100C37BD465DF820
:102BA000047B704700E100E080B500AF01F038FC25
:102BB00080BD00BF80B400AF72B6084B1B68B3F194
:102BC000FF3F04D0054B1B685A1C044B1A60034B93
:102BD0001B681846BD465DF8047B7047F400002072
:102BE00080B483B000AF0C4B1B68002B0DD00A4B98
:102BF0001B685A1E084B1A60074B1B687B607B687A
:102C0000002B00D162B67B6800E0002318460C3729
:102C1000BD465DF8047B7047F400002080B400AF2F
:102C2000034B1B6A1846BD465DF8047B704700BF26
:102C300000C0084080B400AF034B9B6A1846BD46F5
:102C40005DF8047B704700BF00C0084080B483B0CB
:102C500000AF7860064B7A6802F00F02A03253F89A
:102C6000223018460C37BD465DF8047B704700BF24
:102C700000C0084080B483B000AF7860034B7A682E
:102C80005A640C37BD465DF8047B704700C00840AD
:102C900080B483B000AF7860054B054AD16C7A6888
:102CA0000A43DA640C37BD465DF8047B704700BF09
:102CB00000C0084080B483B000AF7860054B054A7F
:102CC000D16C7A68D2430A40DA640C37BD465DF8AD
:102CD000047B704700C0084080B483B000AF064B4F
:102CE000DB6C7B60044B1A6C7B68134018460C3716
:102CF000BD465DF8047B704700C0084080B500AF5A
:102D0000FFF752FF11200521FEF71AFC124803219C
:102D1000FEF716FC11480121FEF712FC10480121B4
:102D2000FEF708FA0F480121FEF704FA0E480121C8
:102D3000FEF700FA0D480121FEF7FCF90C480121CD
:102D4000FEF7F8F90B480121FEF7F4F909480121D3
:102D5000FEF7D8F880BD00BF0200180003001A007B
:102D60004081040000D204000092040000A204008C
:102D7000004302006006280080B500AF0220002159
:102D8000FEF748FE0220082100220023FEF7E0FEA5
:102D90000220092100220023FEF7DAFE02200A2188
:102DA00000220023FEF7D4FE02200B210022002384
:102DB000FEF7CEFE80BD00BF80B500AF0A480021FF
:102DC00000220023FDF710FE084800210022002306
:102DD000FDF70AFE04480649FDF7C0FD0348044913
:102DE000FDF7BCFD80BD00BF001000400014004096
:102DF000784E000090B585B000AF0346FB715B4B89
:102E00001B78002B03D05A480121FFF76DFAFB799C
:102E1000002B37D0FFF730FD00BFFFF7FFFE034662
:102E200003F01003002BF8D1FFF740FD0020042130
:102E3000FFF70EFB00200021FFF7A0FB4D48FFF736
:102E4000CDFB4D4B1B88082037211A46FFF7AEFCFF
:102E5000494B5B88092037211A46FFF7A7FC464BF0
:102E60009B880A2037211A46FFF7A0FC424BDB88DB
:102E70000B2037211A46FFF799FC4FF48030FFF7FB
:102E800019FF1EE0FFF7F8FC00BFFFF7C7FE03467F
:102E900003F01003002BF8D14FF48030FFF7EAFE67
:102EA000FFF704FD00204021FFF7D2FA00200321A4
:102EB000FFF764FB3148FFF791FB4FF48030FFF7D9
:102EC000E7FE1120FFF758FEFFF7BCFC274B1B78ED
:102ED000002B47D0254B00221A7000BF284B1B6ADD
:102EE00003F00203002BF9D00023FB730023BB7314
:102EF00019E0BB7B234AD35C002B11D0FB7B032B57
:102F00000BD8FC7BBB7B1846FFF7A0FE03469BB2A9
:102F1000013B9AB2184B23F81420FB7B0133FB735F
:102F2000BB7B0133BB73BB7B0F2BE2D9124B1B88DE
:102F3000082037211A46FFF739FC0F4B5B88092020
:102F400037211A46FFF732FC0B4B9B880A203721AA
:102F50001A46FFF72BFC084BDB880B2037211A465B
:102F6000FFF724FC1437BD4690BD00BF440000208D
:102F70008C4E0000CC4E000044010020CC500000DC
:102F800000C008403C4E000080B582B000AFFFF7A3
:102F9000A3FE034603F48033002B42D04FF480306D
:102FA000FFF768FE294B00221A702EE0274B1B7892
:102FB000DBB2274AD35C83F00103DBB2002B00D0E5
:102FC0001CE0FFF737FE7860204B1B78DBB21A4617
:102FD000204B796843F822101C4B1B78DBB21A4651
:102FE0001D4B53F822207B689A4207D2174B1B785F
:102FF000DBB21A46184B796843F82210134B1B7842
:10300000DBB20133DAB2114B1A70104B1B78DBB212
:103010000F2BCBD9114B1B68002B02D00F4B1B6819
:103020009847FFF759FE034603F47063002B0AD05C
:103030004FF47060FFF71EFE094B1B68002B02D097
:10304000074B1B6898470837BD4680BD40010020EC
:103050003C4E0000F8000020040000203801002051
:103060003C010020B0B491B000AF4FF0FF33BB6320
:10307000EC237B634F4B07F118041D460FCD0FC4A3
:1030800095E8030084E803004B4B3C1D1D460FCD23
:103090000FC42B6823600123FB6344E0FB6B9B00A0
:1030A00007F14000034453F83C3C5A1E434B53F88D
:1030B00022301A02FB6B9B0007F140010B4443F8DE
:1030C000282CFB6B9B0007F14002134453F8282C7B
:1030D000FB6B9B0007F14000034453F83C3C591E36
:1030E000374B53F82130B2FBF3F2FB6B9B0007F137
:1030F00040010B4443F8282CFB6B9B0007F1400276
:10310000134453F8282C7B6B9A4209D2FB6B9B002B
:1031100007F14000034453F8283C7B63FB6BBB631F
:10312000FB6B0133FB63FB6B042BB7DDBB6BB3F1B4
:10313000FF3F02D14FF0FF3336E0BB6B013B1B0179
:103140003B633A6BBB6B013B9B0007F140010B44B7
:1031500053F8283CC3F58073D900BB6B9B0007F183
:103160004000034453F8283CC3F58073B1FBF3F3EC
:10317000D31A3B63BB6B01339B0007F140010B4447
:1031800053F8283CC3F58073DA00BB6B9B0007F152
:103190004000034453F8283CC3F58073B2FBF3F2BC
:1031A0003B6B13443B633B6B18464437BD46B0BC96
:1031B000704700BF4C4E0000644E0000F800002035
:1031C0000400002080B582B000AF0346FB71FFF71A
:1031D000F1FCFFF793FDFFF7CFFDFFF7EDFDFB7966
:1031E0001846FFF707FEFFF7FBFC0837BD4680BD1A
:1031F00080B483B000AF0346FB71084B97F90720FA
:103200005209F97901F01F01012000FA01F143F898
:1032100022100C37BD465DF8047B704700E100E0EA
:1032200080B483B000AF0346FB71094B97F90720C8
:103230005209F97901F01F01012000FA01F1603211
:1032400043F822100C37BD465DF8047B704700BF81
:1032500000E100E080B400AF72B6084B1B68B3F128
:10326000FF3F04D0054B1B685A1C044B1A60034BEC
:103270001B681846BD465DF8047B7047F4000020CB
:1032800080B483B000AF0C4B1B68002B0DD00A4BF1
:103290001B685A1E084B1A60074B1B687B607B68D3
:1032A000002B00D162B67B6800E0002318460C3783
:1032B000BD465DF8047B7047F400002080B400AF89
:1032C000034B5B681846BD465DF8047B704700BF42
:1032D0000000084080B483B000AF7860034B7A6888
:1032E0009A610C37BD465DF8047B704700000840CA
:1032F00080B483B000AF7860054B054AD1697A6825
:10330000D2430A40DA610C37BD465DF8047B704752
:103310000000084080B483B000AF7860054B054AD8
:10332000D1697A680A43DA610C37BD465DF8047BDF
:10333000704700BF0000084080B400AF034B1B691A
:103340001846BD465DF8047B704700BF000008408A
:1033500080B584B000AF78600023FB600023BB60C1
:10336000FFF778FF02E0FB680133FB60FB68002B8E
:103370000ADC1649FA6813469B001344DB000B4431
:1033800018339B79002BEED1FB68012B02D1104B37
:10339000BB6014E07B68002B0FD00C49FA68134621
:1033A0009B001344DB000B44183301229A71FA6826
:1033B0007B681A600023BB6001E0064BBB60FFF72F
:1033C0005FFFBB6818461037BD4680BD5001002026
:1033D000011000F0041000F080B500AF1D4B1B7809
:1033E000002B01D0002332E01A4B01221A701A4838
:1033F0000121FDF79FFE19480221FEF7A1F81848A8
:103400000821FDF77FFD16480121FDF793FE1548C1
:10341000FFF746FB0720FFF76BFF0720FFF75AFF78
:10342000FFF766FB1E20FFF7FBFE1E20FFF7E0FE06
:103430000D480021282201F0FDFB0C4B00221A70E0
:103440000B4B00221A700B4B00221A600023184607
:1034500080BD00BF8201002000430200020018006E
:1034600060161000CC5200005001002080010020A6
:10347000810100207C010020B0B58EB000AFF86063
:103480007A603B600B46FB720023FB62FB68002BFB
:1034900001D08B4B86E1FFF7DDFE8A49FA681346BF
:1034A0009B001344DB000B4418339B7983F001032A
:1034B000DBB2002B03D0FFF7E3FE834B72E17B68A6
:1034C000002B0AD13B68002B03D03B68F868B96C2D
:1034D0009847FFF7D5FE002364E1FFF7EFFE38635E
:1034E0007849FA6813469B001344DB000B441833F9
:1034F0003A681A607B681A464FF00003DD0345EA1C
:103500005245D40314F57A6245F10003104619467A
:103510004FF4FA524FF0000301F06EF802460B46EA
:1035200010461946674CFA6813469B001344DB00AB
:1035300023440833C3E90001FB7A012B28D17B68BF
:103540004FF47A7202FB03F15E48FA6813469B005F
:103550001344DB0003440833D3E900231346F42269
:1035600002FB03F3CB1A19465648FA6813469B0030
:103570001344DB000344103319605249FA681346C0
:103580009B001344DB000B4410337A225A6017E08F
:103590004C49FA6813469B001344DB000B44083384
:1035A000D3E9002312F1FF3043F1FF31454CFA68B3
:1035B00013469B001344DB0023440833C3E9000196
:1035C0004049FA6813469B001344DB000B44083360
:1035D000D3E90023501C43F100013A4CFA6813462A
:1035E0009B001344DB002344C3E900013549FA681A
:1035F00013469B001344DB000B44183301221A715D
:103600003049FA6813469B001344DB000B4418331F
:10361000FA7ADA712B49FA6813469B001344DB00EF
:103620000B442033BA6C1A60284B1B78002B03D054
:10363000FFF726FE0023B5E0254B1B68B3F1FF3FE3
:1036400004D0234B1B685A1C214B1A60214B1B785A
:1036500083F00103DBB2002B42D03B6B23F07F42AF
:103660001D4B1A600220FFF735FE1649FA68134613
:103670009B001344DB000B44D3E90023C7E9082374
:10368000164BFB61FB691A464FF00003D7E90801AE
:10369000994208BF904201D202460B461346BB61D5
:1036A0003A6BBB69134423F07F4300201946FFF7B0
:1036B000C1F90220FFF72EFE064B01221A7065E0C9
:1036C000021000F050010020031000F080010020E3
:1036D0007C01002081010020780100209BFFFF0079
:1036E000324B1B68012B51D13149FA6813469B00BC
:1036F0001344DB000B44183300221A710220FFF739
:10370000F7FD3B6B1A022B4B1B681B02D31A1B0ADB
:103710007B637A6B6FF07F439A4201D100237B6316
:10372000786B00F0D1F800F023FAFB6A002B09D186
:103730001F49FA6813469B001344DB000B441833FF
:1037400001221A71FB6A0133FB62386B00F042FA06
:10375000FFF7B4FD38633B6B1A02164B1B681B0264
:10376000D31A1B0A7B630020FFF746F903461A02AF
:10377000104B1B681B02D31A1B0A7B610E4B1B7874
:10378000002B03D07A6B7B699A42B7D8074B1B6832
:10379000002B04D0054B1B685A1E044B1A60FFF720
:1037A0006FFD002318463837BD46B0BD7C010020B0
:1037B00050010020780100208101002080B582B0F6
:1037C00000AF78607B68002B01D0134B20E0FFF73F
:1037D00041FD12497A6813469B001344DB000B44F9
:1037E00018339B7983F00103DBB2002B03D0FFF782
:1037F00047FD0B4B0CE009497A6813469B001344C4
:10380000DB000B44183300221A71FFF739FD002347
:1038100018460837BD4680BD021000F05001002058
:10382000031000F080B584B000AFFFF713FDFFF781
:1038300083FDB860BB6803F00203002B39D01F4B37
:1038400001221A70FFF73AFDF8600220FFF750FDE1
:10385000FB681A021A4B1B681B02D31A1B0A7B60F7
:10386000786800F031F800F083F9F86800F0B2F9F8
:10387000FFF724FDF860FB681A02114B1B681B025E
:10388000D31A1B0A7B600020FFF7B6F803461A0222
:103890000B4B1B681B02D31A1B0A3B60094B1B789E
:1038A000002B03D07A683B689A42CED8034B0022A3
:1038B0001A70FFF7E5FC1037BD4680BD800100207F
:1038C000780100208101002090B484B000AF7860BE
:1038D0000023FB6041E1A549FA6813469B001344AD
:1038E000DB000B44183300225A71A049FA681346D2
:1038F0009B001344DB000B4418331B79002B00F0B2
:1039000029819A49FA6813469B001344DB000B4453
:10391000D3E90023796808464FF00001994208BFB7
:10392000904219D29149FA6813469B001344DB0078
:103930000B44D3E900017B681A464FF00003801A5C
:1039400061EB0301894CFA6813469B001344DB00CA
:103950002344C3E90001FDE08449FA6813469B0053
:103960001344DB000B441833DB79002B0AD17F4969
:10397000FA6813469B001344DB000B441833002203
:103980001A71D2E07949FA6813469B001344DB00B0
:103990000B440833D3E900017B681A464FF000035B
:1039A000801A61EB0301714CFA6813469B001344C3
:1039B000DB002344D3E90023801841EB03016B4C67
:1039C000FA6813469B001344DB002344C3E900015B
:1039D0006649FA6813469B001344DB000B4410331E
:1039E0001B68002B50DD6149FA6813469B001344A5
:1039F000DB000B44103359685C48FA6813469B009F
:103A00001344DB00034410331B6819445748FA6819
:103A100013469B001344DB000344103359605349A1
:103A2000FA6813469B001344DB000B4410335B68B9
:103A3000F32B7AD94D49FA6813469B001344DB00F7
:103A40000B44D3E90023501C43F10001474CFA68B2
:103A500013469B001344DB002344C3E900014349A0
:103A6000FA6813469B001344DB000B4410335B6879
:103A7000A3F1F4013D48FA6813469B001344DB00B0
:103A800003441033596050E03849FA6813469B00EC
:103A90001344DB000B44103359683448FA6813466A
:103AA0009B001344DB00034410331B68C91A2F48E2
:103AB000FA6813469B001344DB000344103359603B
:103AC0002A49FA6813469B001344DB000B44103369
:103AD0005B68F32B29D92549FA6813469B001344E8
:103AE000DB000B44D3E9002312F1FF3043F1FF3137
:103AF0001E4CFA6813469B001344DB002344C3E9C1
:103B000000011A49FA6813469B001344DB000B447A
:103B100010335B68A3F1F4011448FA6813469B0064
:103B20001344DB000344103359601049FA6813460C
:103B30009B001344DB000B4418331B68002B09D097
:103B40000A49FA6813469B001344DB000B44183300
:103B500001225A71FB680133FB60FB68002B7FF781
:103B6000BAAE1037BD4690BC704700BF5001002070
:103B700090B583B000AF00237B6023E014497A68DE
:103B800013469B001344DB000B4418335B79002B76
:103B900015D00F497A6813469B001344DB000B4491
:103BA00018331C6879680A487A6813469B001344E6
:103BB000DB00034420331B6808461946A0477B6896
:103BC00001337B607B68002BD8DD0C37BD4690BD90
:103BD0005001002080B58AB000AF78604FF0FF320E
:103BE0004FF0FF33C7E9062300237B6227E0374904
:103BF0007A6A13469B001344DB000B4418331B798D
:103C0000002B19D031497A6A13469B001344DB001C
:103C10000B44D3E90001D7E90623994208BF90423B
:103C20000AD22A497A6A13469B001344DB000B44EC
:103C3000D3E90023C7E906237B6A01337B627B6AF1
:103C4000002BD4DD224B00221A70D7E90623B3F1F2
:103C5000FF3F08BFB2F1FF3F35D0D7E90623C7E9E0
:103C600004231C4BFB60FB681A464FF00003D7E9A6
:103C70000401994208BF904201D202460B46C7E9AF
:103C80000623154B1B7883F00103DBB2002B05D014
:103C90007B6823F07F42114B1A6002E00F4B7A6879
:103CA0001A600220FFF716FBBA697B68134423F001
:103CB0007F4300201946FEF7BDFE054B01221A7016
:103CC0000220FFF727FB2837BD4680BD50010020AA
:103CD000810100209BFFFF0080010020780100206F
:103CE00080B483B000AF0346FB71FB79002B03D097
:103CF000054B01221A6602E0034B00221A660C37BC
:103D0000BD465DF8047B704700A0084080B483B0D6
:103D100000AF786000BF054B5A6E7B681340002BE4
:103D2000F9D10C37BD465DF8047B704700A0084010
:103D300080B483B000AF7860054B054A916A7A6819
:103D4000D2430A409A620C37BD465DF8047B704747
:103D500000A0084080B500AF002028490022FEF7EF
:103D60001DF9012025490022FEF718F902202349F8
:103D70000022FEF713F9032020490022FEF70EF976
:103D800004201E490022FEF709F905201B490022E4
:103D9000FEF704F9062019490022FEF7FFF8072074
:103DA00016490022FEF7FAF80020FF210022FEF754
:103DB000B3F90120FF210022FEF7AEF90220FF2116
:103DC0000022FEF7A9F90320FF210022FEF7A4F943
:103DD0000420FF210022FEF79FF90520FF21002289
:103DE000FEF79AF90620FF210022FEF795F9072039
:103DF000FF210022FEF790F980BD00BF00F00FF018
:103E000080B500AF072026490022FEF7C7F806203C
:103E100024490022FEF7C2F8052022490022FEF7BD
:103E2000BDF804201F490022FEF7B8F803201D4901
:103E30000022FEF7B3F802201A490022FEF7AEF87E
:103E4000012018490022FEF7A9F800204FF0204178
:103E50000022FEF7A3F8072007210022FEF75CF9F5
:103E6000062007210022FEF757F90520072100222E
:103E7000FEF752F9042007210022FEF74DF9032036
:103E800007210022FEF748F9022007210022FEF751
:103E900043F9012007210022FEF73EF900BF80BD53
:103EA00000E00F5000E00FF080B584B000AF786004
:103EB0003960114A7B68134403F580739B79FB607A
:103EC0000D4A7B68134403F584739B79BB603B68A0
:103ED000002B07D0FA68BB68104619460122FDF78F
:103EE0006BFF06E0FA68BB68104619460022FDF732
:103EF00063FF1037BD4680BDD052000080B582B050
:103F000000AF0346FB7125480121FDF713F9244852
:103F10000321FDF715FB23484021FCF7F3FF0120A7
:103F2000FDF76AFC20480121FDF704F94FF0FF304E
:103F3000FFF7FEFE1D48FDF7C5FE08200121FDF735
:103F40001BFF10200121FDF717FF80200121FDF745
:103F500013FF4FF480700121FDF70EFF4FF4007046
:103F60000121FDF709FFFB79002B0DD04FF4402014
:103F7000FEF790F94FF48030FDF7DCFE0C4B0C4A55
:103F8000D26F42F00802DA67FFF7E4FE4FF0FF302D
:103F9000FFF7BCFE0837BD4680BD00BF00430200EE
:103FA000020018006000240000362600AC55000016
:103FB00000800C4080B58AB000AF78607A6842F229
:103FC0000E739A4202DD42F20F737B607B6813F539
:103FD0007A7F01DC3C4B7B607B68002B06DA7868DB
:103FE00000F0EAFD78600123BB6101E00023BB61C2
:103FF0004FF0FF30FFF78AFE0120FFF771FE00F05F
:104000006BF80123FB6100233B6254E07A68FB6993
:1040100092FBF3F12D4B83FB01239A10CB17D21A9D
:1040200013469B0013445B00CA1A1346FB82BB690C
:10403000012B04D13B6A032B01D11023FB82FA8AA6
:10404000234B33F81230BB8200237B6227E02149E7
:104050003A6A1346DB009B1A5B00CA187B6A13445A
:10406000C033DB7A3B611B493A6A1346DB009B1A7B
:104070005B00CA187B6A1344C0331B79FB60BA8AA1
:104080007B6A42FA03F303F00103002B04D0F868C3
:1040900039690122FDF790FE7B6A01337B627B6AFE
:1040A000062BD4DDFA6913469B0013445B00FB61C9
:1040B0003B6A01333B623B6A032BA7DD0020FFF71D
:1040C0000FFE2837BD4680BD19FCFFFF6766666698
:1040D00088550000D052000080B500AF0120782143
:1040E0000022FEF719F8022078210022FEF714F8CA
:1040F000032078210022FEF70FF804207821002207
:10410000FEF70AF8052078210022FEF705F80620C0
:1041100078210022FEF700F8072078210022FDF721
:10412000FBFF00BF80BD00BF80B584B000AF034679
:104130003960FB710023FB600023BB60FB79102B0F
:1041400079D801A252F823F08D4100009741000078
:10415000A1410000AB410000B5410000BF4100009B
:10416000C9410000D3410000DD410000E7410000EB
:10417000F1410000FB410000054200000F42000039
:1041800019420000234200002D4200000123FB6081
:104190000C23BB604FE00023FB602023BB604AE0A0
:1041A0000323FB602723BB6045E00223FB600C2355
:1041B000BB6040E00023FB601C23BB603BE00323AB
:1041C000FB600C23BB6036E00423FB600C23BB6068
:1041D00031E00023FB601E23BB602CE00523FB6065
:1041E0002723BB6027E00023FB602223BB6022E083
:1041F0000023FB602323BB601DE00723FB600C232F
:10420000BB6018E00523FB600C23BB6013E00623B2
:10421000FB600C23BB600EE00723FB601D23BB602B
:1042200009E00723FB601F23BB6004E00423FB605D
:104230002723BB6000BF3B68002B05D0F868B96836
:104240000122FDF7B9FD04E0F868B9680022FDF726
:10425000B3FD1037BD4680BD80B58AB000AF786031
:10426000786800F029FD0346BB6100233B624FF0F4
:10427000FF30FFF74BFD0120FFF732FDFFF7C0FDD8
:1042800000233B6246E03A6ABB699A4203DA7B68E4
:104290001B787B6201E020237B627B6A203B7B6290
:1042A000214B7A6A33F81230FB820023FB6128E04D
:1042B0001E493A6A1346DB009B1A9B00CA18FB6929
:1042C000134408339B793B6118493A6A1346DB0073
:1042D0009B1A9B00FA6913440B441B78FB60FA8A13
:1042E000FB6942FA03F303F00103002B06D0FA68DE
:1042F0003B69104619460122FDF75EFDFB6901335B
:10430000FB61FB690D2BD3DD7B6801337B603B6A6E
:1043100001333B623B6A062BB5DD0020FFF7E0FC72
:104320002837BD4680BD00BFD0540000D0520000E9
:1043300080B586B000AF78604FF0FF30FFF7E6FC45
:104340000120FFF7CDFCFFF75BFD0023BB7536E0D6
:104350000023FB752DE0BA7DF97D1D481346DB0077
:104360009B1A9B0003440B4408339B793B61BA7D45
:10437000F87D17491346DB009B1A9B0003440B444E
:104380001B78FB60BB7D5B007A6813441B881A4670
:10439000FB7D42FA03F303F00103002B06D0FA6819
:1043A0003B69104619460122FDF706FDFB7D0133EE
:1043B000FB75FB7D0D2BCED9BB7D0133BB75BB7D62
:1043C000062BC5D90020FFF78BFC1837BD4680BDF2
:1043D000D0520000064880470649074A074B9A42D8
:1043E000BEBF51F8040B42F8040BF8E7FBF7A0FE40
:1043F000AD450000D455000000000020C0000020A2
:10440000FEE700BF80B400AF044BDB6C1B0EDBB2D9
:104410001846BD465DF8047B704700BFB081E00FD1
:1044200080B582B000AF00F01FF87860074B5B6882
:1044300003F00F037A6822FA03F37B60044B7A6877
:104440001A607B6818460837BD4680BD00800C4066
:10445000A801002080B400AF024B1846BD465DF8AD
:10446000047B7047006CDC0280B582B000AF334B38
:10447000DB6A03F47053B3F5805F0AD0B3F5005FD5
:1044800003D0B3F5006F08D00BE02D4B1B687B60A9
:1044900047E04FF400437B6043E02A4B1B687B609E
:1044A0003FE0264BDB6803F4E063B3F5007F1BD0ED
:1044B000B3F5007F05D8002B24D0B3F5807F16D04C
:1044C0002BE0B3F5806F09D0B3F5A06F03D0B3F53F
:1044D000407F06D021E01C4B7B6021E01B4B7B60C2
:1044E0001EE01B4B7B601BE01A4B7B6018E0FFF764
:1044F00089FF0346122B02D9174B7B6010E0174B44
:104500007B600DE0FFF77EFF0346122B02D9144BB0
:104510007B6005E0134B7B6002E000237B6000BF03
:1045200000BF064B1B6803F4E0339B0B01337A6832
:10453000B2FBF3F318460837BD4680BD00800C403F
:104540004C00002048000020003FAB01406F4001BC
:10455000809FD500C0D8A70040B56400C0CF6A00D6
:10456000804F120040420F0080B400AF034B1B6825
:104570001846BD465DF8047B704700BF4800002028
:1045800080B582B000AF7860064B7A681A60064B3F
:10459000DB6A03F40063002B01D0FFF741FF08370B
:1045A000BD4680BD4800002000800C4080B400AFB4
:1045B000BD465DF8047B704780B400AF4FF4004304
:1045C0001846BD465DF8047B704700BF80B400AF5D
:1045D0004FF47A731846BD465DF8047B704700BF00
:1045E00080B400AF034B1B681846BD465DF8047BE2
:1045F000704700BF4C0000204BB942B9002908BFEA
:10460000002802D04FF0FF31084600F03BB882B0DE
:10461000EC462DE9005000F01DF8DDF804E002B092
:104620000CBC70472DE9704F089E14461D4680460D
:10463000894600F029F804FB01F3A4FB00AB00FB62
:1046400005329344B8EB0A0869EB0B09C6E9008907
:10465000BDE8708F2DE9704F089E14461D468046B8
:10466000894600F061F900FB05F5A0FB04AB04FBF3
:104670000154A344B8EB0A0869EB0B09C6E90089A9
:10468000BDE8708F704700BF00292DE9F00FC0F220
:10469000A1800024002BC0F29880154606460F46E4
:1046A000002B3FD18A4258D9B2FA82F34BB1C3F101
:1046B000200201FA03F720FA02F29D4000FA03F605
:1046C0001743290CB7FBF1F201FB1277A8B200FBEC
:1046D00002F34FEA164C4CEA0747BB4209D97F194F
:1046E00002F1FF3C80F00581BB4240F20281023AB8
:1046F0002F44FF1AB7FBF1F301FB137100FB03F02A
:10470000B6B246EA0141884208D9491903F1FF3798
:1047100080F0F180884240F2EE80023B43EA0242A0
:10472000002303E08B420AD900231A46104619469B
:1047300014B1404261EB4101BDE8F00F7047B3FA9C
:1047400083F8B8F1000F40F088808B4202D3824298
:1047500000F2E28000230122E8E712B90123B3FB53
:10476000F2F5B5FA85F2002A3AD17F1B280C1FFA20
:1047700085FC0123B7FBF0F100FB11770CFB01F284
:104780004FEA164848EA0747BA4207D97F1901F1AC
:10479000FF3802D2BA4200F2C4804146BF1AB7FBCA
:1047A000F0F200FB12700CFB02FCB6B246EA0040CD
:1047B000844507D9401902F1FF3702D2844500F23F
:1047C000AE803A4642EA0142B0E7E443524263EB2C
:1047D000430362E7404261EB41014FF0FF3459E788
:1047E0009540C2F1200927FA09F126FA09F9974004
:1047F000280CB1FBF0F800FB18111FFA85FC0CFB2C
:1048000008F349EA07094FEA194747EA01418B4291
:1048100006FA02F608D9491908F1FF327AD28B421A
:1048200078D9A8F102082944C91AB1FBF0F300FBBA
:1048300013170CFB03F21FFA89F949EA0747BA423A
:1048400007D97F1903F1FF3160D2BA425ED9023B2A
:104850002F44BF1A43EA08438CE7C8F1200225FA27
:1048600002F103FA08FC27FA02F320FA02F207FA2F
:1048700008F741EA0C0C4FEA1C49B3FBF9F109FBBC
:1048800011331FFA8CFA0AFB01FB17433A0C42EA78
:1048900003439B4505FA08F008D913EB0C0301F11B
:1048A000FF3235D29B4533D902396344CBEB030346
:1048B000B3FBF9F209FB12330AFB02FABFB247EA73
:1048C0000347BA4508D917EB0C0702F1FF331BD297
:1048D000BA4519D9023A674442EA0145A5FB0001ED
:1048E000CAEB07078F424FF000030AD305D02A46D0
:1048F0001CE76246FDE63B4610E706FA08F68642EC
:10490000F5D26A1E002311E71A46E5E70B46A0E739
:104910001146CBE7904687E74346424606E7023A10
:1049200050E702392F4439E72DE9F00F14460546C8
:104930000E46002B43D18A4253D9B2FA82F757B1BF
:10494000C7F1200620FA06F601FA07F302FA07F487
:1049500000FA07F51E43210CB6FBF1F201FB1266CB
:10496000A0B200FB02F32F0C47EA0646B34209D976
:10497000361902F1FF3780F0FD80B34240F2FA8031
:10498000023A2644F61AB6FBF1F301FB136100FB71
:1049900003F0ADB245EA0141884208D9091903F193
:1049A000FF3680F0E980884240F2E680023B43EA2D
:1049B0000242002310461946BDE8F00F70478B42B3
:1049C0004CD8B3FA83F6002E4FD18B4202D38242E9
:1049D00000F2DD80BDE8F00F0023012210461946E9
:1049E000704712B90124B4FBF2F4B4FA84F2002A3D
:1049F00040F08280091B260CA7B20123B1FBF6F020
:104A000006FB101107FB00F24FEA154C4CEA01417E
:104A10008A4207D9091900F1FF3C02D28A4200F20A
:104A2000C8806046891AB1FBF6F206FB121107FB3B
:104A300002F7ADB245EA0145AF4208D92C1902F19F
:104A4000FF3180F09B80A74240F29880023A42EA10
:104A5000004210461946BDE8F00F704700231A4681
:104A600010461946BDE8F00F7047C6F1200522FA3E
:104A700005F703FA06F421FA05F301FA06FB20FA1A
:104A800005F53C434FEA1448B3FBF8FC08FB1C3324
:104A90001FFA84F909FB0CFA45EA0B0B4FEA1B4598
:104AA00045EA03439A4502FA06F204D91B190CF1B0
:104AB000FF356FD3AC46CAEB0303B3FBF8F508FB35
:104AC000153309FB05F91FFA8BFB4BEA0347B94580
:104AD00004D93F1905F1FF3362D31D4645EA0C4C5A
:104AE000ACFB0223C9EB07079F424FF000054AD3F6
:104AF00046D062462B465DE79440C2F1200921FA78
:104B000009FC914020FA09F9260CBCFBF6F806FBDB
:104B100018CCA7B207FB08F349EA01094FEA19418B
:104B200041EA0C4C634500FA02F509D91CEB040C70
:104B300008F1FF323BD2634539D9A8F10208A444F9
:104B4000C3EB0C0CBCFBF6F306FB13C107FB03F233
:104B50001FFA89F949EA01418A4207D9091903F183
:104B6000FF3022D28A4220D9023B2144891A43EAEB
:104B7000084343E73A4605E7334618E70A4666E73F
:104B8000B0409042B5D20CF1FF32002312E7334619
:104B900032460FE79A458DD9ACF1020C23448AE7DF
:104BA000B9459AD9023D274498E70346DEE7904687
:104BB000C6E70238214435E70028B8BF40427047B5
:104BC00008B5074B044613B10021AFF30080054B35
:104BD0001868836A03B19847204600F00DF900BFBA
:104BE00000000000C455000070B50E4B0E4D0024AF
:104BF000ED1AAD101E46AC4204D056F82420904762
:104C00000134F8E700F0FAF8084D094B0024ED1ADA
:104C1000AD101E46AC4204D056F824209047013413
:104C2000F8E770BDB4000020B4000020B8000020F8
:104C3000B400002002440346934202D003F8011B53
:104C4000FAE77047194B10B51C68A36BD3B918204D
:104C500000F04CF843F20E33A06303804AF6CD33E4
:104C6000438041F2342383804EF26D63C3804DF65E
:104C7000EC630381052343810B23838101220023FD
:104C8000C0E90423A16B0A4C0A6948695443094BE3
:104C900003FB0040A2FB03230132034443F1000362
:104CA000C1E9042323F0004010BD00BFB000002084
:104CB0002DF451582D7F954C034613F8012B002AF3
:104CC000FBD1181A0138704710B5034632B111F8FC
:104CD000014B013A03F8014B002CF7D11A449342DF
:104CE00003D0002103F8011BF9E710BD024B014678
:104CF000186800F003B800BFB000002070B5CD1CEC
:104D000025F0030508350C2D38BF0C25002D06466F
:104D10003FDB8D423DD3214B1C6818462146A1B193
:104D20000B685B1B0ED40B2B03D90B60CC18CD503A
:104D30001FE08C4202D1626802601AE04B68636037
:104D40000C4616E00C464968E9E7154C23681BB988
:104D5000304600F027F820602946304600F022F85F
:104D6000431C014615D0C41C24F0030484420AD11C
:104D7000256004F10B00231D20F00700C31A0BD09F
:104D80005A42E25070BD3046611A00F00BF8013013
:104D9000EED10C233360002070BD00BF88010020DD
:104DA0008401002038B5064C0023054608462360E0
:104DB00000F008F8431C02D1236803B12B6038BD12
:104DC000AC010020094A136863B11844694688425F
:104DD00002D8106018467047054B0C221A604FF03D
:104DE000FF307047034B1360EFE700BF8C010020DA
:104DF000AC010020B0010020FEE700BFF8B500BF05
:104E0000F8BC08BC9E467047F8B500BFF8BC08BCAB
:104E10009E4670470000000047414D45204F5645D3
:104E2000522047414D45204F56455200000000009A
:104E30000000000000000000010001000000000070
:104E4000000000000101010100000000FF0000005F
:104E5000FF000000FF000000FF000000FF00000056
:104E6000FF00000000000000090000000A00000030
:104E70000B0000000C000000000000000700000014
:104E8000070700003D0000000000000000000000D7
:104E90000000000100000000000000000000000011
:104EA00000000000000000000000000000000400FE
:104EB00002020000000000000000000000000000EE
:104EC00000010000000001000102030000000000DA
:104ED00000000000000000000000000000000000D2
:104EE00000000000000000000000000000000000C2
:104EF00000000000000000000000000000000000B2
:104F000000000000000000000000000000000000A1
:104F10000000000000000000000000000000000091
:104F20000000000000000000000000000000000081
:104F30000000000000000000000000000000000071
:104F40000000000000000000000000000000000061
:104F50000000000000000000000000000000000051
:104F60000000000000000000000000000000000041
:104F70000000000000000000000000000000000031
:104F80000000000000000000000000000000000021
:104F90000000000000000000000000000000000011
:104FA0000000000000000000000000000000000001
:104FB00000000000000000000000000000000000F1
:104FC00000000000000000000000000001010100DE
:104FD0000000000000000000010000000100370098
:104FE000000000200E000000000000000101010090
:104FF0000000000000000000010000000100370078
:10500000000000200E00000000000000010101006F
:105010000000000000000000010000000100370057
:10502000000000200E00000000000000010101004F
:105030000000000000000000010000000100370037
:10504000000000200E000000000000000000000032
:105050000000000000000000000000000000000050
:105060000000000000000000000000000000000040
:105070000000000000000000000000000000000030
:105080000000000000000000000000000000000020
:105090000000000000000000000000000000000010
:1050A0000000000000000000000000000000000000
:1050B00000000000000000000000000000000000F0
:1050C00000000000000000000000000000000000E0
:1050D00000000000000000000000000000000000D0
:1050E00000000000000000000000000000000000C0
:1050F00000000000000000000000000000000000B0
:10510000000000000000000000000000000000009F
:10511000000000000000000000000000000000008F
:10512000000000000000000000000000000000007F
:10513000000000000000000000000000000000006F
:10514000000000000000000000000000000000005F
:10515000000000000000000000000000000000004F
:10516000000000000000000000000000000000003F
:10517000000000000000000000000000000000002F
:10518000000000000000000000000000000000001F
:10519000000000000000000000000000000000000F
:1051A00000000000000000000000000000000000FF
:1051B00000000000000000000000000000000000EF
:1051C00000000000000000000000000001010000DD
:1051D0000000000000000000010000000F00370088
:1051E000000000200000000000000000010100009D
:1051F0000000000000000000010000000F00370068
:10520000000000200000000000000000010100007C
:105210000000000000000000010000000F00370047
:10522000000000200000000000000000010100005C
:105230000000000000000000010000000F00370027
:10524000000000200000000000000000000000003E
:10525000000000000000000000000000000000004E
:10526000000000000000000000000000000000003E
:10527000000000000000000000000000000000002E
:10528000000000000000000000000000000000001E
:10529000000000000000000000000000000000000E
:1052A00000000000000000000000000000000000FE
:1052B00000000000000000000000000000000000EE
:1052C00000000000000000000000000001000000DD
:1052D00001010507070304020302040605060D0E7B
:1052E0000E0E0D0D0D0D0E0E0E0E0D0D010105070E
:1052F000070304020302040605060F1010100F0F27
:105300000F0F101010100F0F010105070703040203
:1053100003020406050611121212111111111212C4
:10532000121211110101050707030402030204060A
:105330000506131C1C1C131313131C1C1C1C131319
:1053400000010507060203010302040604051D1EF1
:105350001E1E1D1D1D1D1E1E1E1E1D1D00010507DE
:10536000060203010302040604051F2020201F1F5C
:105370001F1F202020201F1F010105070703040213
:1053800003020406050621222222212121212222B4
:1053900022222121070502010306042323232323BC
:1053A000232307050201030604242424242424249F
:1053B00007050201030604252525252525250705C2
:1053C00002010306042626262626262600010702B9
:1053D00006272727272700000000000000001312DF
:1053E00011100F0E0D0C00000000212524260101D4
:1053F0000304040203020D0E0D0D0E0D0E0E01012D
:105400000304040203020F100F0F100F101001010C
:1054100003040402030211121111121112120101EC
:10542000030404020302131C13131C131C1C0001AD
:105430000203040103021D1E1D1D1E1D1E1E000170
:105440000203040103021F201F1F201F202001014F
:105450000304040203022122212122212222050722
:105460000704040605060E0E0D0D0E0E0D0D0507A4
:1054700007040406050610100F0F10100F0F050784
:105480000704040605061212111112121111050764
:105490000704040605061C1C13131C1C1313050724
:1054A0000603040604051E1E1D1D1E1E1D1D0507E8
:1054B00006030406040520201F1F20201F1F0507C8
:1054C00007040406050622222121222221210000B0
:1054D0000000001180020000000002060000200011
:1054E00039000F0000004015002040040010002289
:1054F0003F0006005B044F0466046D047D04070052
:105500007F046F0400000000000A000080200000FB
:10551000FFFF7704790A3900B020790071007D041B
:10552000760406000E00700A3800B602B6083F0086
:1055300073043F08730C6D0401113E0030223628BD
:10554000802A6E040922390080080F00010008003B
:10555000000158107C0458005E04582071040C0CA3
:10556000740404000E00700C3800541454045C04DD
:10557000730467045004080C78001C0010201428E1
:10558000802A0C08482000003F0006005B004F0006
:1055900066006D007D0007007F006F0077007C00D3
:1055A00039005E0079007100400000000100000039
:1055B000030040000C00000000000000000000009C
:0C55C0004300000050000020000000002C
:0855CC0064ABFF7F0100000049
:1055D400FFFFFFFF010000000100000001000000C8
:1055E40001000000010000000100000001000000B3
:1055F40001000000010000000100000001000000A3
:105604000100000001000000010000000100000092
:105614000100000001000000006CDC0200800000BA
:105624000000000000000000000000000000000076
:105634000000000000000000000000000000000066
:10564400C055000000000000000000000000000041
:105654000000000000000000000000000000000046
:105664000000000000000000000000000000000036
:105674000000000000000000000000000000000026
:105684005000002001010000DD00000000000000C7
:04000003000043D5E1
:00000001FF
