:100000000000022065020000910200009102000041
:100010009102000091020000910200009102000094
:100020009102000091020000910200009102000084
:100030009102000091020000910200009102000074
:100040009102000091020000910200009102000064
:100050009102000091020000910200009102000054
:100060009102000091020000910200009102000044
:100070009102000091020000910200009102000034
:100080009102000091020000910200009102000024
:100090009102000091020000910200009102000014
:1000A0009102000091020000910200009102000004
:1000B00091020000910200009102000091020000F4
:1000C00091020000910200009102000091020000E4
:1000D00091020000910200009102000010B5054C51
:1000E000237833B9044B13B10448AFF300800123E4
:1000F000237010BD6C0000200000000048030000C9
:1001000008B5064B1BB106480649AFF30080064808
:10011000036813B1054B03B1984708BD0000000008
:10012000480300007000002068000020000000006C
:10013000154B002B08BF134B9D46A3F5803A0021B9
:100140008B460F461348144A121A00F0E3F80F4B7F
:10015000002B00D098470E4B002B00D09847002072
:10016000002104000D000D48002802D00C48AFF318
:10017000008000F0A9F82000290000F033F800F01A
:100180008FF800BF000008000000022000000000FF
:10019000000000006C00002088000020000000002B
:1001A0000000000080B582B000AF0C4B1B687B6084
:1001B0003B46184600F01CF87B681B0E0F2B0AD933
:1001C0003B78032B07D1064B054A126822F05002F8
:1001D00042F010021A600837BD4680BDFC81E00F76
:1001E000C0800C4080B500AFFFF7DCFFFEE700BF2A
:1001F00080B485B000AF7860194B5B69DBB203F067
:100200000F03DBB29B00FB73154B1B6903F0C003AC
:100210009B09DAB2FB7B1343FB737B68FA7B9A7012
:100220000F4B1B69DBB203F03F03DAB27B685A70F5
:100230000B4B9B69DBB223F00F03FB73084BDB69AD
:1002400003F0F0031B09DAB2FB7B1343FB737B68FB
:10025000FA7B1A701437BD465DF8047B704700BF07
:10026000D0FF0FE0064880470649074A074B9A42ED
:10027000BEBF51F8040B42F8040BF8E7FFF758FF34
:100280009502000054030000000000206C000020D4
:10029000FEE700BF80B400AFBD465DF8047B704749
:1002A00008B5074B044613B10021AFF30080054B9E
:1002B0001868836A03B19847204600F033F800BFFE
:1002C000000000004403000070B50E4B0E4D0024EA
:1002D000ED1AAD101E46AC4204D056F824209047CB
:1002E0000134F8E700F020F8084D094B0024ED1A1E
:1002F000AD101E46AC4204D056F82420904701347D
:10030000F8E770BD6000002060000020640000205D
:100310006000002002440346934202D003F8011B10
:10032000FAE77047FEE700BFF8B500BFF8BC08BCAD
:100330009E467047F8B500BFF8BC08BC9E467047A3
:0C0340004300000000000020000000004E
:08034C00E4FDFF7F0100000049
:100354000000000000000000000000000000000099
:100364000000000000000000000000000000000089
:100374004003000000000000000000000000000036
:100384000000000000000000000000000000000069
:100394000000000000000000000000000000000059
:1003A4000000000000000000000000000000000049
:0C03B40001010000DD000000000000005E
:040000030000026592
:00000001FF
